{
  "_format": "hh-sol-artifact-1",
  "contractName": "TokenBalance",
  "sourceName": "contracts/TokenBalance.sol",
  "abi": [
    {
      "inputs": [
        {
          "internalType": "string",
          "name": "name",
          "type": "string"
        },
        {
          "internalType": "string",
          "name": "symbol",
          "type": "string"
        }
      ],
      "stateMutability": "nonpayable",
      "type": "constructor"
    },
    {
      "inputs": [
        {
          "internalType": "address",
          "name": "spender",
          "type": "address"
        },
        {
          "internalType": "uint256",
          "name": "allowance",
          "type": "uint256"
        },
        {
          "internalType": "uint256",
          "name": "needed",
          "type": "uint256"
        }
      ],
      "name": "ERC20InsufficientAllowance",
      "type": "error"
    },
    {
      "inputs": [
        {
          "internalType": "address",
          "name": "sender",
          "type": "address"
        },
        {
          "internalType": "uint256",
          "name": "balance",
          "type": "uint256"
        },
        {
          "internalType": "uint256",
          "name": "needed",
          "type": "uint256"
        }
      ],
      "name": "ERC20InsufficientBalance",
      "type": "error"
    },
    {
      "inputs": [
        {
          "internalType": "address",
          "name": "approver",
          "type": "address"
        }
      ],
      "name": "ERC20InvalidApprover",
      "type": "error"
    },
    {
      "inputs": [
        {
          "internalType": "address",
          "name": "receiver",
          "type": "address"
        }
      ],
      "name": "ERC20InvalidReceiver",
      "type": "error"
    },
    {
      "inputs": [
        {
          "internalType": "address",
          "name": "sender",
          "type": "address"
        }
      ],
      "name": "ERC20InvalidSender",
      "type": "error"
    },
    {
      "inputs": [
        {
          "internalType": "address",
          "name": "spender",
          "type": "address"
        }
      ],
      "name": "ERC20InvalidSpender",
      "type": "error"
    },
    {
      "inputs": [
        {
          "internalType": "address",
          "name": "owner",
          "type": "address"
        }
      ],
      "name": "OwnableInvalidOwner",
      "type": "error"
    },
    {
      "inputs": [
        {
          "internalType": "address",
          "name": "account",
          "type": "address"
        }
      ],
      "name": "OwnableUnauthorizedAccount",
      "type": "error"
    },
    {
      "anonymous": false,
      "inputs": [
        {
          "indexed": true,
          "internalType": "address",
          "name": "owner",
          "type": "address"
        },
        {
          "indexed": true,
          "internalType": "address",
          "name": "spender",
          "type": "address"
        },
        {
          "indexed": false,
          "internalType": "uint256",
          "name": "value",
          "type": "uint256"
        }
      ],
      "name": "Approval",
      "type": "event"
    },
    {
      "anonymous": false,
      "inputs": [
        {
          "indexed": true,
          "internalType": "address",
          "name": "previousOwner",
          "type": "address"
        },
        {
          "indexed": true,
          "internalType": "address",
          "name": "newOwner",
          "type": "address"
        }
      ],
      "name": "OwnershipTransferred",
      "type": "event"
    },
    {
      "anonymous": false,
      "inputs": [
        {
          "indexed": true,
          "internalType": "address",
          "name": "from",
          "type": "address"
        },
        {
          "indexed": false,
          "internalType": "uint256",
          "name": "amount",
          "type": "uint256"
        },
        {
          "indexed": false,
          "internalType": "uint256",
          "name": "timestamp",
          "type": "uint256"
        }
      ],
      "name": "TokensBurned",
      "type": "event"
    },
    {
      "anonymous": false,
      "inputs": [
        {
          "indexed": true,
          "internalType": "address",
          "name": "to",
          "type": "address"
        },
        {
          "indexed": false,
          "internalType": "uint256",
          "name": "amount",
          "type": "uint256"
        },
        {
          "indexed": false,
          "internalType": "uint256",
          "name": "timestamp",
          "type": "uint256"
        }
      ],
      "name": "TokensMinted",
      "type": "event"
    },
    {
      "anonymous": false,
      "inputs": [
        {
          "indexed": true,
          "internalType": "address",
          "name": "from",
          "type": "address"
        },
        {
          "indexed": true,
          "internalType": "address",
          "name": "to",
          "type": "address"
        },
        {
          "indexed": false,
          "internalType": "uint256",
          "name": "amount",
          "type": "uint256"
        },
        {
          "indexed": false,
          "internalType": "uint256",
          "name": "timestamp",
          "type": "uint256"
        }
      ],
      "name": "TokensTransferred",
      "type": "event"
    },
    {
      "anonymous": false,
      "inputs": [
        {
          "indexed": true,
          "internalType": "address",
          "name": "from",
          "type": "address"
        },
        {
          "indexed": true,
          "internalType": "address",
          "name": "to",
          "type": "address"
        },
        {
          "indexed": false,
          "internalType": "uint256",
          "name": "value",
          "type": "uint256"
        }
      ],
      "name": "Transfer",
      "type": "event"
    },
    {
      "inputs": [],
      "name": "MAX_SUPPLY",
      "outputs": [
        {
          "internalType": "uint256",
          "name": "",
          "type": "uint256"
        }
      ],
      "stateMutability": "view",
      "type": "function"
    },
    {
      "inputs": [
        {
          "internalType": "address",
          "name": "owner",
          "type": "address"
        },
        {
          "internalType": "address",
          "name": "spender",
          "type": "address"
        }
      ],
      "name": "allowance",
      "outputs": [
        {
          "internalType": "uint256",
          "name": "",
          "type": "uint256"
        }
      ],
      "stateMutability": "view",
      "type": "function"
    },
    {
      "inputs": [
        {
          "internalType": "address",
          "name": "spender",
          "type": "address"
        },
        {
          "internalType": "uint256",
          "name": "value",
          "type": "uint256"
        }
      ],
      "name": "approve",
      "outputs": [
        {
          "internalType": "bool",
          "name": "",
          "type": "bool"
        }
      ],
      "stateMutability": "nonpayable",
      "type": "function"
    },
    {
      "inputs": [
        {
          "internalType": "address",
          "name": "account",
          "type": "address"
        }
      ],
      "name": "balanceOf",
      "outputs": [
        {
          "internalType": "uint256",
          "name": "",
          "type": "uint256"
        }
      ],
      "stateMutability": "view",
      "type": "function"
    },
    {
      "inputs": [
        {
          "internalType": "address[]",
          "name": "recipients",
          "type": "address[]"
        },
        {
          "internalType": "uint256[]",
          "name": "amounts",
          "type": "uint256[]"
        }
      ],
      "name": "batchMint",
      "outputs": [],
      "stateMutability": "nonpayable",
      "type": "function"
    },
    {
      "inputs": [
        {
          "internalType": "uint256",
          "name": "amount",
          "type": "uint256"
        }
      ],
      "name": "burn",
      "outputs": [],
      "stateMutability": "nonpayable",
      "type": "function"
    },
    {
      "inputs": [],
      "name": "decimals",
      "outputs": [
        {
          "internalType": "uint8",
          "name": "",
          "type": "uint8"
        }
      ],
      "stateMutability": "view",
      "type": "function"
    },
    {
      "inputs": [],
      "name": "getContractInfo",
      "outputs": [
        {
          "internalType": "string",
          "name": "tokenName",
          "type": "string"
        },
        {
          "internalType": "string",
          "name": "tokenSymbol",
          "type": "string"
        },
        {
          "internalType": "uint256",
          "name": "totalTokenSupply",
          "type": "uint256"
        },
        {
          "internalType": "uint256",
          "name": "maxSupply",
          "type": "uint256"
        },
        {
          "internalType": "address",
          "name": "contractOwner",
          "type": "address"
        }
      ],
      "stateMutability": "view",
      "type": "function"
    },
    {
      "inputs": [
        {
          "internalType": "address",
          "name": "to",
          "type": "address"
        },
        {
          "internalType": "uint256",
          "name": "amount",
          "type": "uint256"
        }
      ],
      "name": "mint",
      "outputs": [],
      "stateMutability": "nonpayable",
      "type": "function"
    },
    {
      "inputs": [],
      "name": "name",
      "outputs": [
        {
          "internalType": "string",
          "name": "",
          "type": "string"
        }
      ],
      "stateMutability": "view",
      "type": "function"
    },
    {
      "inputs": [],
      "name": "owner",
      "outputs": [
        {
          "internalType": "address",
          "name": "",
          "type": "address"
        }
      ],
      "stateMutability": "view",
      "type": "function"
    },
    {
      "inputs": [],
      "name": "renounceOwnership",
      "outputs": [],
      "stateMutability": "nonpayable",
      "type": "function"
    },
    {
      "inputs": [],
      "name": "symbol",
      "outputs": [
        {
          "internalType": "string",
          "name": "",
          "type": "string"
        }
      ],
      "stateMutability": "view",
      "type": "function"
    },
    {
      "inputs": [],
      "name": "totalSupply",
      "outputs": [
        {
          "internalType": "uint256",
          "name": "",
          "type": "uint256"
        }
      ],
      "stateMutability": "view",
      "type": "function"
    },
    {
      "inputs": [
        {
          "internalType": "address",
          "name": "to",
          "type": "address"
        },
        {
          "internalType": "uint256",
          "name": "amount",
          "type": "uint256"
        }
      ],
      "name": "transfer",
      "outputs": [
        {
          "internalType": "bool",
          "name": "",
          "type": "bool"
        }
      ],
      "stateMutability": "nonpayable",
      "type": "function"
    },
    {
      "inputs": [
        {
          "internalType": "address",
          "name": "from",
          "type": "address"
        },
        {
          "internalType": "address",
          "name": "to",
          "type": "address"
        },
        {
          "internalType": "uint256",
          "name": "amount",
          "type": "uint256"
        }
      ],
      "name": "transferFrom",
      "outputs": [
        {
          "internalType": "bool",
          "name": "",
          "type": "bool"
        }
      ],
      "stateMutability": "nonpayable",
      "type": "function"
    },
    {
      "inputs": [
        {
          "internalType": "address",
          "name": "newOwner",
          "type": "address"
        }
      ],
      "name": "transferOwnership",
      "outputs": [],
      "stateMutability": "nonpayable",
      "type": "function"
    }
  ],
  "bytecode": "0x60806040523480156200001157600080fd5b50604051620028a1380380620028a1833981810160405281019062000037919062000348565b33828281600390816200004b919062000618565b5080600490816200005d919062000618565b505050600073ffffffffffffffffffffffffffffffffffffffff168173ffffffffffffffffffffffffffffffffffffffff1603620000d55760006040517f1e4fbdf7000000000000000000000000000000000000000000000000000000008152600401620000cc919062000744565b60405180910390fd5b620000e681620000ef60201b60201c565b50505062000761565b6000600560009054906101000a900473ffffffffffffffffffffffffffffffffffffffff16905081600560006101000a81548173ffffffffffffffffffffffffffffffffffffffff021916908373ffffffffffffffffffffffffffffffffffffffff1602179055508173ffffffffffffffffffffffffffffffffffffffff168173ffffffffffffffffffffffffffffffffffffffff167f8be0079c531659141344cd1fd0a4f28419497f9722a3daafe3b4186f6b6457e060405160405180910390a35050565b6000604051905090565b600080fd5b600080fd5b600080fd5b600080fd5b6000601f19601f8301169050919050565b7f4e487b7100000000000000000000000000000000000000000000000000000000600052604160045260246000fd5b6200021e82620001d3565b810181811067ffffffffffffffff8211171562000240576200023f620001e4565b5b80604052505050565b600062000255620001b5565b905062000263828262000213565b919050565b600067ffffffffffffffff821115620002865762000285620001e4565b5b6200029182620001d3565b9050602081019050919050565b60005b83811015620002be578082015181840152602081019050620002a1565b60008484015250505050565b6000620002e1620002db8462000268565b62000249565b9050828152602081018484840111156200030057620002ff620001ce565b5b6200030d8482856200029e565b509392505050565b600082601f8301126200032d576200032c620001c9565b5b81516200033f848260208601620002ca565b91505092915050565b60008060408385031215620003625762000361620001bf565b5b600083015167ffffffffffffffff811115620003835762000382620001c4565b5b620003918582860162000315565b925050602083015167ffffffffffffffff811115620003b557620003b4620001c4565b5b620003c38582860162000315565b9150509250929050565b600081519050919050565b7f4e487b7100000000000000000000000000000000000000000000000000000000600052602260045260246000fd5b600060028204905060018216806200042057607f821691505b602082108103620004365762000435620003d8565b5b50919050565b60008190508160005260206000209050919050565b60006020601f8301049050919050565b600082821b905092915050565b600060088302620004a07fffffffffffffffffffffffffffffffffffffffffffffffffffffffffffffffff8262000461565b620004ac868362000461565b95508019841693508086168417925050509392505050565b6000819050919050565b6000819050919050565b6000620004f9620004f3620004ed84620004c4565b620004ce565b620004c4565b9050919050565b6000819050919050565b6200051583620004d8565b6200052d620005248262000500565b8484546200046e565b825550505050565b600090565b6200054462000535565b620005518184846200050a565b505050565b5b8181101562000579576200056d6000826200053a565b60018101905062000557565b5050565b601f821115620005c85762000592816200043c565b6200059d8462000451565b81016020851015620005ad578190505b620005c5620005bc8562000451565b83018262000556565b50505b505050565b600082821c905092915050565b6000620005ed60001984600802620005cd565b1980831691505092915050565b6000620006088383620005da565b9150826002028217905092915050565b6200062382620003cd565b67ffffffffffffffff8111156200063f576200063e620001e4565b5b6200064b825462000407565b620006588282856200057d565b600060209050601f8311600181146200069057600084156200067b578287015190505b620006878582620005fa565b865550620006f7565b601f198416620006a0866200043c565b60005b82811015620006ca57848901518255600182019150602085019450602081019050620006a3565b86831015620006ea5784890151620006e6601f891682620005da565b8355505b6001600288020188555050505b505050505050565b600073ffffffffffffffffffffffffffffffffffffffff82169050919050565b60006200072c82620006ff565b9050919050565b6200073e816200071f565b82525050565b60006020820190506200075b600083018462000733565b92915050565b61213080620007716000396000f3fe608060405234801561001057600080fd5b506004361061010b5760003560e01c806368573107116100a25780638da5cb5b116100715780638da5cb5b1461029857806395d89b41146102b6578063a9059cbb146102d4578063dd62ed3e14610304578063f2fde38b146103345761010b565b8063685731071461022057806370a082311461023c578063715018a61461026c5780637cc1f867146102765761010b565b8063313ce567116100de578063313ce567146101ac57806332cb6b0c146101ca57806340c10f19146101e857806342966c68146102045761010b565b806306fdde0314610110578063095ea7b31461012e57806318160ddd1461015e57806323b872dd1461017c575b600080fd5b610118610350565b60405161012591906115ec565b60405180910390f35b610148600480360381019061014391906116b6565b6103e2565b6040516101559190611711565b60405180910390f35b610166610405565b604051610173919061173b565b60405180910390f35b61019660048036038101906101919190611756565b61040f565b6040516101a39190611711565b60405180910390f35b6101b4610498565b6040516101c191906117c5565b60405180910390f35b6101d26104a1565b6040516101df919061173b565b60405180910390f35b61020260048036038101906101fd91906116b6565b6104b1565b005b61021e600480360381019061021991906117e0565b610630565b005b61023a60048036038101906102359190611a18565b61071b565b005b61025660048036038101906102519190611a90565b610a28565b604051610263919061173b565b60405180910390f35b610274610a70565b005b61027e610a84565b60405161028f959493929190611acc565b60405180910390f35b6102a0610aca565b6040516102ad9190611b2d565b60405180910390f35b6102be610af4565b6040516102cb91906115ec565b60405180910390f35b6102ee60048036038101906102e991906116b6565b610b86565b6040516102fb9190611711565b60405180910390f35b61031e60048036038101906103199190611b48565b610c0d565b60405161032b919061173b565b60405180910390f35b61034e60048036038101906103499190611a90565b610c94565b005b60606003805461035f90611bb7565b80601f016020809104026020016040519081016040528092919081815260200182805461038b90611bb7565b80156103d85780601f106103ad576101008083540402835291602001916103d8565b820191906000526020600020905b8154815290600101906020018083116103bb57829003601f168201915b5050505050905090565b6000806103ed610d1a565b90506103fa818585610d22565b600191505092915050565b6000600254905090565b60008061041d858585610d34565b9050801561048d578373ffffffffffffffffffffffffffffffffffffffff168573ffffffffffffffffffffffffffffffffffffffff167f822a0f1c29fca2c743650969736c315e9c7dc38972549bc35637169f07de97698542604051610484929190611be8565b60405180910390a35b809150509392505050565b60006012905090565b6b033b2e3c9fd0803ce800000081565b6104b9610d63565b600073ffffffffffffffffffffffffffffffffffffffff168273ffffffffffffffffffffffffffffffffffffffff1603610528576040517f08c379a000000000000000000000000000000000000000000000000000000000815260040161051f90611c83565b60405180910390fd5b6000811161056b576040517f08c379a000000000000000000000000000000000000000000000000000000000815260040161056290611d15565b60405180910390fd5b6000610575610405565b90506b033b2e3c9fd0803ce800000082826105909190611d64565b11156105d1576040517f08c379a00000000000000000000000000000000000000000000000000000000081526004016105c890611e0a565b60405180910390fd5b6105db8383610dea565b8273ffffffffffffffffffffffffffffffffffffffff167f2e8ac5177a616f2aec08c3048f5021e4e9743ece034e8d83ba5caf76688bb4758342604051610623929190611be8565b60405180910390a2505050565b60008111610673576040517f08c379a000000000000000000000000000000000000000000000000000000000815260040161066a90611e9c565b60405180910390fd5b8061067d33610a28565b10156106be576040517f08c379a00000000000000000000000000000000000000000000000000000000081526004016106b590611f2e565b60405180910390fd5b6106c83382610e6c565b3373ffffffffffffffffffffffffffffffffffffffff167fccbea4088a3b7ae9ca2d15fab9a9742a4075b4d7247768a1eecea917565aba008242604051610710929190611be8565b60405180910390a250565b610723610d63565b8051825114610767576040517f08c379a000000000000000000000000000000000000000000000000000000000815260040161075e90611fc0565b60405180910390fd5b60008251116107ab576040517f08c379a00000000000000000000000000000000000000000000000000000000081526004016107a29061202c565b60405180910390fd5b6000805b82518110156108d957600073ffffffffffffffffffffffffffffffffffffffff168482815181106107e3576107e261204c565b5b602002602001015173ffffffffffffffffffffffffffffffffffffffff1603610841576040517f08c379a000000000000000000000000000000000000000000000000000000000815260040161083890611c83565b60405180910390fd5b60008382815181106108565761085561204c565b5b60200260200101511161089e576040517f08c379a000000000000000000000000000000000000000000000000000000000815260040161089590611d15565b60405180910390fd5b8281815181106108b1576108b061204c565b5b6020026020010151826108c49190611d64565b915080806108d19061207b565b9150506107af565b5060006108e4610405565b90506b033b2e3c9fd0803ce800000082826108ff9190611d64565b1115610940576040517f08c379a000000000000000000000000000000000000000000000000000000000815260040161093790611e0a565b60405180910390fd5b60005b8451811015610a215761098a8582815181106109625761096161204c565b5b602002602001015185838151811061097d5761097c61204c565b5b6020026020010151610dea565b84818151811061099d5761099c61204c565b5b602002602001015173ffffffffffffffffffffffffffffffffffffffff167f2e8ac5177a616f2aec08c3048f5021e4e9743ece034e8d83ba5caf76688bb4758583815181106109ef576109ee61204c565b5b602002602001015142604051610a06929190611be8565b60405180910390a28080610a199061207b565b915050610943565b5050505050565b60008060008373ffffffffffffffffffffffffffffffffffffffff1673ffffffffffffffffffffffffffffffffffffffff168152602001908152602001600020549050919050565b610a78610d63565b610a826000610eee565b565b6060806000806000610a94610350565b610a9c610af4565b610aa4610405565b6b033b2e3c9fd0803ce8000000610ab9610aca565b945094509450945094509091929394565b6000600560009054906101000a900473ffffffffffffffffffffffffffffffffffffffff16905090565b606060048054610b0390611bb7565b80601f0160208091040260200160405190810160405280929190818152602001828054610b2f90611bb7565b8015610b7c5780601f10610b5157610100808354040283529160200191610b7c565b820191906000526020600020905b815481529060010190602001808311610b5f57829003601f168201915b5050505050905090565b600080610b938484610fb4565b90508015610c03578373ffffffffffffffffffffffffffffffffffffffff163373ffffffffffffffffffffffffffffffffffffffff167f822a0f1c29fca2c743650969736c315e9c7dc38972549bc35637169f07de97698542604051610bfa929190611be8565b60405180910390a35b8091505092915050565b6000600160008473ffffffffffffffffffffffffffffffffffffffff1673ffffffffffffffffffffffffffffffffffffffff16815260200190815260200160002060008373ffffffffffffffffffffffffffffffffffffffff1673ffffffffffffffffffffffffffffffffffffffff16815260200190815260200160002054905092915050565b610c9c610d63565b600073ffffffffffffffffffffffffffffffffffffffff168173ffffffffffffffffffffffffffffffffffffffff1603610d0e5760006040517f1e4fbdf7000000000000000000000000000000000000000000000000000000008152600401610d059190611b2d565b60405180910390fd5b610d1781610eee565b50565b600033905090565b610d2f8383836001610fd7565b505050565b600080610d3f610d1a565b9050610d4c8582856111ae565b610d57858585611243565b60019150509392505050565b610d6b610d1a565b73ffffffffffffffffffffffffffffffffffffffff16610d89610aca565b73ffffffffffffffffffffffffffffffffffffffff1614610de857610dac610d1a565b6040517f118cdaa7000000000000000000000000000000000000000000000000000000008152600401610ddf9190611b2d565b60405180910390fd5b565b600073ffffffffffffffffffffffffffffffffffffffff168273ffffffffffffffffffffffffffffffffffffffff1603610e5c5760006040517fec442f05000000000000000000000000000000000000000000000000000000008152600401610e539190611b2d565b60405180910390fd5b610e6860008383611337565b5050565b600073ffffffffffffffffffffffffffffffffffffffff168273ffffffffffffffffffffffffffffffffffffffff1603610ede5760006040517f96c6fd1e000000000000000000000000000000000000000000000000000000008152600401610ed59190611b2d565b60405180910390fd5b610eea82600083611337565b5050565b6000600560009054906101000a900473ffffffffffffffffffffffffffffffffffffffff16905081600560006101000a81548173ffffffffffffffffffffffffffffffffffffffff021916908373ffffffffffffffffffffffffffffffffffffffff1602179055508173ffffffffffffffffffffffffffffffffffffffff168173ffffffffffffffffffffffffffffffffffffffff167f8be0079c531659141344cd1fd0a4f28419497f9722a3daafe3b4186f6b6457e060405160405180910390a35050565b600080610fbf610d1a565b9050610fcc818585611243565b600191505092915050565b600073ffffffffffffffffffffffffffffffffffffffff168473ffffffffffffffffffffffffffffffffffffffff16036110495760006040517fe602df050000000000000000000000000000000000000000000000000000000081526004016110409190611b2d565b60405180910390fd5b600073ffffffffffffffffffffffffffffffffffffffff168373ffffffffffffffffffffffffffffffffffffffff16036110bb5760006040517f94280d620000000000000000000000000000000000000000000000000000000081526004016110b29190611b2d565b60405180910390fd5b81600160008673ffffffffffffffffffffffffffffffffffffffff1673ffffffffffffffffffffffffffffffffffffffff16815260200190815260200160002060008573ffffffffffffffffffffffffffffffffffffffff1673ffffffffffffffffffffffffffffffffffffffff1681526020019081526020016000208190555080156111a8578273ffffffffffffffffffffffffffffffffffffffff168473ffffffffffffffffffffffffffffffffffffffff167f8c5be1e5ebec7d5bd14f71427d1e84f3dd0314c0f7b2291e5b200ac8c7c3b9258460405161119f919061173b565b60405180910390a35b50505050565b60006111ba8484610c0d565b90507fffffffffffffffffffffffffffffffffffffffffffffffffffffffffffffffff81101561123d578181101561122d578281836040517ffb8f41b2000000000000000000000000000000000000000000000000000000008152600401611224939291906120c3565b60405180910390fd5b61123c84848484036000610fd7565b5b50505050565b600073ffffffffffffffffffffffffffffffffffffffff168373ffffffffffffffffffffffffffffffffffffffff16036112b55760006040517f96c6fd1e0000000000000000000000000000000000000000000000000000000081526004016112ac9190611b2d565b60405180910390fd5b600073ffffffffffffffffffffffffffffffffffffffff168273ffffffffffffffffffffffffffffffffffffffff16036113275760006040517fec442f0500000000000000000000000000000000000000000000000000000000815260040161131e9190611b2d565b60405180910390fd5b611332838383611337565b505050565b600073ffffffffffffffffffffffffffffffffffffffff168373ffffffffffffffffffffffffffffffffffffffff160361138957806002600082825461137d9190611d64565b9250508190555061145c565b60008060008573ffffffffffffffffffffffffffffffffffffffff1673ffffffffffffffffffffffffffffffffffffffff16815260200190815260200160002054905081811015611415578381836040517fe450d38c00000000000000000000000000000000000000000000000000000000815260040161140c939291906120c3565b60405180910390fd5b8181036000808673ffffffffffffffffffffffffffffffffffffffff1673ffffffffffffffffffffffffffffffffffffffff16815260200190815260200160002081905550505b600073ffffffffffffffffffffffffffffffffffffffff168273ffffffffffffffffffffffffffffffffffffffff16036114a557806002600082825403925050819055506114f2565b806000808473ffffffffffffffffffffffffffffffffffffffff1673ffffffffffffffffffffffffffffffffffffffff168152602001908152602001600020600082825401925050819055505b8173ffffffffffffffffffffffffffffffffffffffff168373ffffffffffffffffffffffffffffffffffffffff167fddf252ad1be2c89b69c2b068fc378daa952ba7f163c4a11628f55a4df523b3ef8360405161154f919061173b565b60405180910390a3505050565b600081519050919050565b600082825260208201905092915050565b60005b8381101561159657808201518184015260208101905061157b565b60008484015250505050565b6000601f19601f8301169050919050565b60006115be8261155c565b6115c88185611567565b93506115d8818560208601611578565b6115e1816115a2565b840191505092915050565b6000602082019050818103600083015261160681846115b3565b905092915050565b6000604051905090565b600080fd5b600080fd5b600073ffffffffffffffffffffffffffffffffffffffff82169050919050565b600061164d82611622565b9050919050565b61165d81611642565b811461166857600080fd5b50565b60008135905061167a81611654565b92915050565b6000819050919050565b61169381611680565b811461169e57600080fd5b50565b6000813590506116b08161168a565b92915050565b600080604083850312156116cd576116cc611618565b5b60006116db8582860161166b565b92505060206116ec858286016116a1565b9150509250929050565b60008115159050919050565b61170b816116f6565b82525050565b60006020820190506117266000830184611702565b92915050565b61173581611680565b82525050565b6000602082019050611750600083018461172c565b92915050565b60008060006060848603121561176f5761176e611618565b5b600061177d8682870161166b565b935050602061178e8682870161166b565b925050604061179f868287016116a1565b9150509250925092565b600060ff82169050919050565b6117bf816117a9565b82525050565b60006020820190506117da60008301846117b6565b92915050565b6000602082840312156117f6576117f5611618565b5b6000611804848285016116a1565b91505092915050565b600080fd5b7f4e487b7100000000000000000000000000000000000000000000000000000000600052604160045260246000fd5b61184a826115a2565b810181811067ffffffffffffffff8211171561186957611868611812565b5b80604052505050565b600061187c61160e565b90506118888282611841565b919050565b600067ffffffffffffffff8211156118a8576118a7611812565b5b602082029050602081019050919050565b600080fd5b60006118d16118cc8461188d565b611872565b905080838252602082019050602084028301858111156118f4576118f36118b9565b5b835b8181101561191d5780611909888261166b565b8452602084019350506020810190506118f6565b5050509392505050565b600082601f83011261193c5761193b61180d565b5b813561194c8482602086016118be565b91505092915050565b600067ffffffffffffffff8211156119705761196f611812565b5b602082029050602081019050919050565b600061199461198f84611955565b611872565b905080838252602082019050602084028301858111156119b7576119b66118b9565b5b835b818110156119e057806119cc88826116a1565b8452602084019350506020810190506119b9565b5050509392505050565b600082601f8301126119ff576119fe61180d565b5b8135611a0f848260208601611981565b91505092915050565b60008060408385031215611a2f57611a2e611618565b5b600083013567ffffffffffffffff811115611a4d57611a4c61161d565b5b611a5985828601611927565b925050602083013567ffffffffffffffff811115611a7a57611a7961161d565b5b611a86858286016119ea565b9150509250929050565b600060208284031215611aa657611aa5611618565b5b6000611ab48482850161166b565b91505092915050565b611ac681611642565b82525050565b600060a0820190508181036000830152611ae681886115b3565b90508181036020830152611afa81876115b3565b9050611b09604083018661172c565b611b16606083018561172c565b611b236080830184611abd565b9695505050505050565b6000602082019050611b426000830184611abd565b92915050565b60008060408385031215611b5f57611b5e611618565b5b6000611b6d8582860161166b565b9250506020611b7e8582860161166b565b9150509250929050565b7f4e487b7100000000000000000000000000000000000000000000000000000000600052602260045260246000fd5b60006002820490506001821680611bcf57607f821691505b602082108103611be257611be1611b88565b5b50919050565b6000604082019050611bfd600083018561172c565b611c0a602083018461172c565b9392505050565b7f546f6b656e42616c616e63653a2043616e6e6f74206d696e7420746f207a657260008201527f6f20616464726573730000000000000000000000000000000000000000000000602082015250565b6000611c6d602983611567565b9150611c7882611c11565b604082019050919050565b60006020820190508181036000830152611c9c81611c60565b9050919050565b7f546f6b656e42616c616e63653a204d696e7420616d6f756e74206d757374206260008201527f652067726561746572207468616e207a65726f00000000000000000000000000602082015250565b6000611cff603383611567565b9150611d0a82611ca3565b604082019050919050565b60006020820190508181036000830152611d2e81611cf2565b9050919050565b7f4e487b7100000000000000000000000000000000000000000000000000000000600052601160045260246000fd5b6000611d6f82611680565b9150611d7a83611680565b9250828201905080821115611d9257611d91611d35565b5b92915050565b7f546f6b656e42616c616e63653a2045786365656473206d6178696d756d20737560008201527f70706c7900000000000000000000000000000000000000000000000000000000602082015250565b6000611df4602483611567565b9150611dff82611d98565b604082019050919050565b60006020820190508181036000830152611e2381611de7565b9050919050565b7f546f6b656e42616c616e63653a204275726e20616d6f756e74206d757374206260008201527f652067726561746572207468616e207a65726f00000000000000000000000000602082015250565b6000611e86603383611567565b9150611e9182611e2a565b604082019050919050565b60006020820190508181036000830152611eb581611e79565b9050919050565b7f546f6b656e42616c616e63653a20496e73756666696369656e742062616c616e60008201527f636520746f206275726e00000000000000000000000000000000000000000000602082015250565b6000611f18602a83611567565b9150611f2382611ebc565b604082019050919050565b60006020820190508181036000830152611f4781611f0b565b9050919050565b7f546f6b656e42616c616e63653a20417272617973206c656e677468206d69736d60008201527f6174636800000000000000000000000000000000000000000000000000000000602082015250565b6000611faa602483611567565b9150611fb582611f4e565b604082019050919050565b60006020820190508181036000830152611fd981611f9d565b9050919050565b7f546f6b656e42616c616e63653a20456d70747920617272617973000000000000600082015250565b6000612016601a83611567565b915061202182611fe0565b602082019050919050565b6000602082019050818103600083015261204581612009565b9050919050565b7f4e487b7100000000000000000000000000000000000000000000000000000000600052603260045260246000fd5b600061208682611680565b91507fffffffffffffffffffffffffffffffffffffffffffffffffffffffffffffffff82036120b8576120b7611d35565b5b600182019050919050565b60006060820190506120d86000830186611abd565b6120e5602083018561172c565b6120f2604083018461172c565b94935050505056fea26469706673582212204e29102292e592450da9ecb78adaf0e778e83f83683af78aebcd3de85ae6748464736f6c63430008140033",
  "linkReferences": {},
  "deployedLinkReferences": {}
}